:10000000E8140020893A0000813A0000813A00009B
:10001000813A0000813A0000813A000000000000AF
:10002000000000000000000000000000813A000015
:10003000813A000000000000813A0000B53F000056
:10004000813A0000E5190000F91900000D1A0000BE
:10005000211A0000351A0000491A00005D1A00003C
:10006000711A0000851A0000991A0000AD1A0000EC
:10007000C11A0000D51A0000E91A0000FD1A00009C
:10008000111B0000813A0000813A0000813A000013
:10009000813A0000813A0000813A0000813A000074
:1000A000813A0000C9020000DD020000F5020000F4
:1000B0000D03000025030000390300005103000078
:1000C000690300008103000095030000AD030000F8
:1000D000C5030000813A0000813A0000813A000027
:1000E000813A0000813A0000813A0000813A000024
:1000F000813A0000813A0000813A0000813A000014
:10010000813A0000813A0000813A0000813A000003
:10011000813A0000813A0000813A00000D40000061
:10012000813A0000813A0000813A0000813A0000E3
:10013000813A000025160000813A00003D160000BB
:10014000813A0000813A0000813A0000813A0000C3
:10015000813A0000813A0000813A0000813A0000B3
:10016000813A0000813A0000813A0000813A0000A3
:10017000813A0000551600006D160000152300009E
:1001800010B5054C237833B9044B13B10448AFF3D1
:1001900000800123237010BDAC020020000000008D
:1001A000787A00000C4B43B10C480D4910B5AFF301
:1001B00000800C48036823B910BD0A48036833B9AE
:1001C0007047094B002BF7D0BDE810401847064B8D
:1001D000002BF5D0184700BF00000000787A00001F
:1001E000B0020020787A00000000000080B485B0E2
:1001F00000AF78607B68FB60FB685B0900BF184656
:100200001437BD4680BC704780B485B000AF7860BD
:100210007B68FB60FB6803F01F03012202FA03F313
:1002200000BF18461437BD4680BC704780B586B005
:1002300000AF786039607B685B0203F1804303F5AF
:1002400061233B613B69D3F8D030FB6000237B61C5
:1002500023E0194A7B6952F83330BB60B868174B0A
:10026000984702467B689A4214D1B868144B984765
:100270000246FB681340002B0CD00F4A7B69DB0061
:1002800013445B68002B05D00B4A7B69DB001344E9
:100290005B6898477B6901337B610A4B1B687A690D
:1002A0009A42D6D3FA683B681A403B69C3F8D82013
:1002B00000BF1837BD4680BDC8020020ED01000018
:1002C00009020000F802002080B500AFFF210020E5
:1002D000014B984700BF80BD2D02000080B500AFE4
:1002E0004FF47F410020024B984700BF80BD00BF04
:1002F0002D02000080B500AF4FF47F010020024BBB
:10030000984700BF80BD00BF2D02000080B500AF40
:100310004FF07F410020024B984700BF80BD00BFD7
:100320002D02000080B500AFFF210120014B98474E
:1003300000BF80BD2D02000080B500AF4FF47F41AB
:100340000120024B984700BF80BD00BF2D02000076
:1003500080B500AF4FF47F010120024B984700BFEA
:1003600080BD00BF2D02000080B500AF4FF07F417F
:100370000120024B984700BF80BD00BF2D02000046
:1003800080B500AFFF210220014B984700BF80BD20
:100390002D02000080B500AF4FF47F410220024BD8
:1003A000984700BF80BD00BF2D02000080B500AFA0
:1003B0004FF47F010220024B984700BF80BD00BF71
:1003C0002D02000080B500AF4FF07F410220024BAC
:1003D000984700BF80BD00BF2D02000080B485B0EB
:1003E00000AF786039607A683B689B011344FB601A
:1003F000FB681B6A18461437BD4680BC7047000076
:1004000080B483B000AF0346FB7197F90730002B2F
:100410000BDB084997F907305B09FA7902F01F02F4
:10042000012000FA02F241F8232000BF0C37BD463C
:1004300080BC704700E100E080B483B000AF0346A9
:10044000FB7197F90730002B0CDB094997F907304E
:100450005B09FA7902F01F02012000FA02F2603310
:1004600041F8232000BF0C37BD4680BC704700BF59
:1004700000E100E080B483B000AF03463960FB7157
:1004800097F90730002B0ADB0D4997F907303A68D6
:10049000D2B21201D2B20B4483F800230AE0094918
:1004A000FB7903F00F03043B3A68D2B21201D2B2D7
:1004B0000B441A7600BF0C37BD4680BC704700BFA6
:1004C00000E100E000ED00E080B483B000AFEFF3A6
:1004D00010837B607B68002B0CBF01230023DBB201
:1004E0003B6072B6BFF35F8F044B00221A703B680B
:1004F00018460C37BD4680BC704700BF7400002012
:1005000080B483B000AF78607B68002B14BF0123F8
:100510000023DBB218460C37BD4680BC7047000094
:1005200080B582B000AF78607868074B9847034683
:10053000002B05D0054B01221A70BFF35F8F62B606
:1005400000BF0837BD4680BD0105000074000020D3
:1005500080B582B000AF0346FB7172B6BFF35F8F08
:10056000054B00221A70FB7919460448044B984742
:1005700000BF0837BD4680BD7400002000000F405A
:100580000937000080B483B000AF0023FB7106E0A0
:10059000FB79084A0021D154FB790133FB71FB79C7
:1005A000062BF5D9034B0122DA7100BF0C37BD468B
:1005B00080BC70477404002080B584B000AF03464F
:1005C000FB71FB790A4AD35CFF2B00D1FEE7094B94
:1005D0009847F860FB79064AD25C0132D1B2044AEE
:1005E000D154F868044B984700BF1037BD4680BD12
:1005F00074040020C90400002105000080B584B007
:1006000000AF0346FB71FB790A4AD35C002B00D193
:10061000FEE7094B9847F860FB79064AD25C013A3D
:10062000D1B2044AD154F868044B984700BF103740
:10063000BD4680BD74040020C904000021050000EF
:1006400080B483B000AF0023FB71094B3B6005E031
:100650003B6801333B60FB790133FB713B681B78DE
:10066000002BF5D0FB7918460C37BD4680BC70478F
:100670007404002080B582B000AF72B6BFF35F8F04
:100680000B4B00221A700B4B98470346FB71FB790A
:10069000002B06D1064B01221A70BFF35F8F62B6A2
:1006A00003E0FB791846044B98470837BD4680BDE8
:1006B00074000020410600005105000080B483B0A2
:1006C00000AF78607B680E4A934201D1032312E0A9
:1006D0007B680C4A934201D102230CE07B680A4AF2
:1006E000934201D1012306E07B68084A934201D17D
:1006F000002300E0002318460C37BD4680BC70473D
:1007000000C007400080074000C001400080014059
:1007100080B586B000AF78604FF4FA63BB6078684C
:10072000944B984738617B68DB69FB60924A3B6970
:1007300052F82330FA681340FB60FB6803F4A063AF
:10074000002B28D0FB6803F48073002B02D06FF0DD
:10075000030101E06FF00101884A3B6913440A4636
:100760001A707B681B6923F400427B681A617B68FE
:10077000DB6823F400427B68DA607B684FF0FF326D
:10078000DA627B684FF0FF325A627D4A3B6913445C
:1007900000221A70EDE1FB6803F00103002B00F06A
:1007A000BD80784A3B6952F823307A685269D2B2E8
:1007B0001A70744A3B6952F823305A1C71493B69DC
:1007C00041F82320704A3B6952F823305A1E6E4983
:1007D0003B6941F823206C4A3B6952F82330002BD7
:1007E00040F0C781664A3B6913441B78DBB2002B9B
:1007F0007BD0664A3B6952F82330002B75D0644A9F
:100800003B6952F823205F493B6941F823205F4A46
:100810003B6952F82330FF2B19D95B4A3B69FF2112
:1008200042F823105A4A3B6952F8233003F1FF0281
:1008300057493B6941F82320544A3B6952F8233019
:10084000A3F1FF0251493B6941F823200CE04F4AD4
:100850003B6952F823204C493B6941F823204B4A1D
:100860003B69002142F82310484A3B6952F8233083
:10087000002B34D04FF4FA63BB6000BF7B681B6968
:1008800003F40043002B04D0BB685A1EBA60002B4F
:10089000F4D17B68DB687B617B6923F03F7323F4D1
:1008A00048337B61394A3B6952F82330FF2B06D924
:1008B0007B6943F03F7343F440337B610BE0334A81
:1008C0003B6952F823301B0403F47F0343F4804355
:1008D0007A6913437B617B687A691A6149E1284A26
:1008E0003B69134400221A7043E17B6801225A627B
:1008F000234A3B69134400221A707B680822DA629B
:100900007B6808221A621C4A3B6952F8233043F084
:10091000080219493B6941F823202AE1FB6803F0EA
:100920000203002B00F019811A4A3B6952F8233068
:10093000002B31D17B6802225A62144A3B6952F87B
:100940002330002B04D10E4A3B69134400221A7055
:100950007B680822DA627B6808221A62064A3B69D1
:1009600052F8233043F0080203493B6941F8232041
:10097000FFE000BFBD060000400300201C03002074
:10098000500300200C0300203003002084030020CB
:100990006403002020030020784A3B6952F823308A
:1009A000591C76483A6940F822101B78DBB21A4687
:1009B0007B689A61724A3B6952F823305A1E70492B
:1009C0003B6941F823206E4A3B6952F82330002BE3
:1009D00040F0CF806B4A3B6913441B78DBB2002B9D
:1009E00079D0694A3B6952F82330002B73D0674AAB
:1009F0003B6952F8232061493B6941F82320624A50
:100A00003B6952F82330FF2B19D95D4A3B69FF211E
:100A100042F823105D4A3B6952F8233003F1FF028C
:100A20005A493B6941F82320574A3B6952F8233021
:100A3000A3F1FF0254493B6941F823200CE0524ADC
:100A40003B6952F823204E493B6941F823204E4A26
:100A50003B69002142F823104B4A3B6952F823308E
:100A6000002B32D04FF4FA63BB6000BF7B681B6978
:100A700003F40043002B04D0BB685A1EBA60002B5D
:100A8000F4D17B68DB687B617B6923F47F0323F40B
:100A900000537B613C4A3B6952F82330FF2B04D959
:100AA0007B6943F47F037B610BE0374A3B6952F873
:100AB00023301B0403F47F0343F480437A69134318
:100AC0007B617B687A691A6153E02E4A3B69134463
:100AD00000221A704DE02B4A3B6913441B78DBB2AD
:100AE000002B46D02A4A3B6952F82330002B40D0D5
:100AF0004FF4FA63BB6000BF7B681B6903F40043DB
:100B0000002B04D0BB685A1EBA60002BF4D17B685E
:100B1000DB687B617B6923F03F7323F448337B619F
:100B20001B4A3B6952F82330FF2B06D97B6943F0FF
:100B30003F7343F440337B610BE0154A3B6952F845
:100B400023301B0403F47F0343F480437A69134387
:100B50007B617B687A691A610BE0FB6803F008032C
:100B6000002B06D07B680822DA627B6808225A6272
:100B7000FFE700BF1837BD4680BD00BFFC02002064
:100B800020030020500300207403002054030020A1
:100B90008403002080B487B000AFF860B9607A6049
:100BA000FB700023FB747A68BB68B2FBF3F35B084D
:100BB0007B6105E0FB7C0133FB747B695B087B6137
:100BC0007B69FF2B02D9FB7C072BF3D9FB7C072B1E
:100BD00002D96FF007031BE07B695B08DAB27B691F
:100BE0005B087969CB1A1B029BB21A43FB7C1B077B
:100BF00003F0E0431A43FB781B0603F070631A43CB
:100C00007B691B0403F47F031A43FB685A600023CB
:100C100018461C37BD4680BC704780B487B000AF13
:100C2000F860B9607A60FB700023FB747A68BB6877
:100C3000B2FBF3F35B087B6105E0FB7C0133FB74E3
:100C40007B695B087B617B69FF2B02D9FB7C072BEF
:100C5000F3D9FB7C072B02D96FF007031BE07B69FC
:100C60005B08DAB27B695B087969CB1A1B029BB21D
:100C70001A43FB7C1B0703F0E0431A43FB781B0677
:100C800003F070631A437B691B0403F47F031A4368
:100C9000FB689A63002318461C37BD4680BC70472A
:100CA00090B583B000AF786039607868434B98475F
:100CB0007B6801221A607B6880221A607B684FF093
:100CC000FF32DA623B689B7B002B06D07B681022E8
:100CD0001A607B684FF0FF329A603B685B68002BBC
:100CE0000ED03B6859683B681A683B681B7B786884
:100CF000334CA0470346002B02D06FF0070358E0A7
:100D00003B689B68002B0ED03B6899683B681A686B
:100D10003B685B7B78682B4CA0470346002B02D0D6
:100D20006FF0070345E03B685B68274A934202D8AF
:100D30004FF0005201E04FF040523B68DB7B1B0656
:100D400003F040731A433B681B7C1B0403F4E0234D
:100D50001A433B685B7C1B0203F440731A433B68F5
:100D60009B7C03F007031A437B68DA633B68DB7CF8
:100D70001B0603F040723B685B7D1B0403F4E02319
:100D80001A433B681B7D1B0503F440131A433B6861
:100D90009B7D1B0203F440731A433B68DB7D03F029
:100DA0000703134343F080527B681A64074B98474C
:100DB000002318460C37BD4690BD00BFCD2800006B
:100DC000950B00001B0C00003F420F008505000042
:100DD00080B483B000AF786039607B683A681A628B
:100DE00000BF0C37BD4680BC7047000080B584B0A2
:100DF00000AF786039607868A84B9847B8607B6826
:100E000001221A607B6880221A607B6802221A60C5
:100E10007B684FF0FF325A627B684FF0FF32DA6234
:100E20003B689A689E49BB6841F823209D4ABB688D
:100E3000134400221A709C4ABB68002142F8231018
:100E40009A4ABB68002142F82310994ABB681344B0
:100E500000221A703B681B7C002B00F0A280954A90
:100E6000BB6840F2015142F823103B685B7C002BC9
:100E700007D03B689B7C1B0703F0E04343F0806294
:100E800000E000223B681B68590040F2FE730B40F3
:100E9000134343F42843FB603B68DB79002B1DD0F0
:100EA0003B681A1D8449BB6841F823203B68DB7905
:100EB0001946824ABB6842F82310804ABB6852F840
:100EC0002330FA681343FB607A4ABB6852F8233038
:100ED00043F002027749BB6841F823207B68FA6837
:100EE000DA603B685B7C002B07D03B689B7C1B0770
:100EF00003F0E04343F0806200E000223B681B689F
:100F0000590040F2FE730B40134343F4384343F05F
:100F10000103FB603B68DB68FF2B22D9614ABB6899
:100F2000134401221A70664ABB68FF2142F823105D
:100F30005B4ABB6852F8233003F1FF026149BB688A
:100F400041F823203B68DB68A3F1FF025649BB68E8
:100F500041F82320FB6843F03F7343F44033FB60C8
:100F600011E03B68DA685649BB6841F82320544ACF
:100F7000BB6852F823301B0403F47F0343F480431F
:100F8000FA681343FB604E4ABB6852F823301B04D7
:100F900003F47F03FA681343FB607B68FA681A6105
:100FA00044E13B68DB79002B00F0AE803B681A1D02
:100FB0004149BB6841F823203B68DB7919463F4A29
:100FC000BB6842F823103B4ABB6840F2035142F829
:100FD00023103B685B7C002B07D03B689B7C1B0786
:100FE00003F0E04343F0806200E000223B681B68AE
:100FF000590040F2FE730B401A433B68DB791B0437
:1010000003F47F03134343F420427B68DA603B68B8
:101010005B7C002B07D03B689B7C1B0703F0E04305
:1010200043F0806200E000223B681B68590040F2F8
:10103000FE730B401A433B68DB681B0403F47F0319
:10104000134343F4204343F00103FB603B68DB6838
:10105000FF2B39D9134ABB68134401221A70184A6E
:10106000BB68FF2142F823100D4ABB6852F82330B9
:1010700003F1FF021349BB6841F823203B68DB689A
:10108000A3F1FF020849BB6841F82320FB6843F045
:101090003F7343F44033FB6028E000BFBD0600000F
:1010A0000C03002050030020840300207403002060
:1010B0001C03002040030020FC020020200300202D
:1010C00030030020640300203B68DA687749BB687E
:1010D00041F82320754ABB6852F823301B0403F4FF
:1010E0007F0343F48043FA681343FB606F4ABB6895
:1010F00052F823301B0403F47F03FA681343FB60A8
:101100007B68FA681A6191E0694ABB68002142F87D
:101110002310684ABB6840F2015142F823103B6833
:101120005B7C002B07D03B689B7C1B0703F0E043F4
:1011300043F0806200E000223B681B68590040F2E7
:10114000FE730B40134343F4204343F00103FB6061
:101150003B68DB68FF2B22D9574ABB681344012246
:101160001A70524ABB68FF2142F82310534ABB68E9
:1011700052F8233003F1FF025149BB6841F82320A4
:101180003B68DB68A3F1FF024E49BB6841F82320AE
:10119000FB6843F03F7343F44033FB6011E03B686E
:1011A000DA684249BB6841F82320404ABB6852F8DC
:1011B00023301B0403F47F0343F48043FA68134392
:1011C000FB603A4ABB6852F823301B0403F47F03E8
:1011D000FA681343FB607B68FA68DA60394ABB68D7
:1011E00052F82330002B21D0FB6823F03F7323F407
:1011F0004833FB60334ABB6852F82330FF2B06D9D3
:10120000FB6843F03F7343F44033FB600BE02D4A2F
:10121000BB6852F823301B0403F47F0343F480437C
:10122000FA681343FB607B68FA681A617B680122E5
:101230001A60204ABB6852F823207B681A62022099
:10124000214B984701E0214B9847214ABB68134442
:101250001B785BB2002B07D178681E4B984703467A
:1012600003F01003002BEED002201B4B98477B6845
:101270004FF0FF325A627B6802221A60144ABB6840
:1012800013441B785BB213F1040F07D0104ABB68FC
:1012900013441B785BB213F1020F02D14FF0FF33FE
:1012A00000E0002318461037BD4680BD3003002003
:1012B0002003002040030020500300200C030020E6
:1012C0006403002084030020B905000075060000B7
:1012D0001C0300205D150000FD05000080B584B0F2
:1012E00000AF7860396078688F4B9847B8607B684A
:1012F00001221A607B6880221A607B6802221A60D1
:101300007B684FF0FF325A627B684FF0FF32DA623F
:10131000864ABB68134400221A70854ABB6840F2B3
:10132000025142F82310834ABB68134400221A700A
:10133000814ABB68002142F82310804ABB68002123
:1013400042F823103B685B7C002B07D03B689B7CFA
:101350001B0703F0E04343F0806200E000223B689B
:101360001B68590040F2FE730B401A433B681B7C1C
:10137000002B02D04FF4006300E00023134343F43A
:101380002043FB603B68DB79002B28D03B681A1DAB
:101390006B49BB6841F823203B68DB791946694AF1
:1013A000BB6842F82310634ABB68134401221A70D9
:1013B0003B689A686449BB6841F823203B68DA6857
:1013C0005E49BB6841F823205E4ABB6852F823306F
:1013D0001B0403F47F03FA681343FB603AE03B68A5
:1013E0009A685749BB6841F823203B68DB68FF2BAC
:1013F0001CD9504ABB68134401221A70514ABB6879
:10140000FF2142F823104E4ABB6852F8233003F103
:10141000FF024D49BB6841F823203B68DB68A3F11C
:10142000FF024649BB6841F8232009E03B68DA68BF
:101430004449BB6841F82320FB6843F48043FB60C8
:10144000404ABB6852F823301B0403F47F03FA6858
:101450001343FB607B68FA68DA60364ABB68134462
:101460001B78DBB2002B1FD0FB6823F47F0323F42F
:101470000053FB60314ABB6852F82330FF2B04D97C
:10148000FB6843F47F03FB600BE02C4ABB6852F817
:1014900023301B0403F47F0343F48043FA681343AF
:1014A000FB607B68FA681A617B6801221A60204A37
:1014B000BB6852F823207B681A620220234B9847AE
:1014C00001E0234B9847194ABB6813441B785BB271
:1014D000002B07D178681F4B9847034603F0100391
:1014E000002BEED002201C4B98477B684FF0FF3258
:1014F0005A627B6802221A600C4ABB6813441B784C
:101500005BB213F1040F07D0084ABB6813441B7881
:101510005BB213F1020F02D14FF0FF3300E0002362
:1015200018461037BD4680BDBD0600001C030020D4
:101530004003002050030020840300207403002097
:10154000FC0200202003002054030020B905000005
:10155000750600005D150000FD05000080B483B035
:1015600000AF78607B68DB6918460C37BD4680BCED
:101570007047000080B586B000AFF860B9607A604F
:10158000FB70F8681D4B9847386100237B61FB684E
:101590001B4A934201D14E237B61FB68194A934257
:1015A00001D14D237B61FB68174A934201D13F2350
:1015B0007B61FB68154A934201D13D237B6114494D
:1015C0003B697A6841F823207B695BB21846114B6E
:1015D00098477B695BB2FA78114618460E4B9847DC
:1015E0007B695BB218460D4B9847B968F8680C4B9D
:1015F000984700BF1837BD4680BD00BFBD0600003C
:1016000000C007400080074000C00140008001404A
:101610007C0400203904000075040000010400006F
:10162000D10D000080B500AF024B1B6802489847FF
:1016300000BF80BD7C0400200080014080B500AF69
:10164000024B5B680248984700BF80BD7C040020C5
:1016500000C0014080B500AF024B9B68024898472C
:1016600000BF80BD7C0400200080074080B500AF33
:10167000024BDB680248984700BF80BD7C04002015
:1016800000C0074080B400AF034B4FF480721A6073
:1016900000BFBD4680BC70470000084080B400AF6A
:1016A000034B4FF480521A6000BFBD4680BC7047A8
:1016B0000000084080B500AF0320054B9847054A5D
:1016C000044B9B6C23F00103936400BF80BD00BFFB
:1016D0007D1900000000084080B400AF034B4FF4B8
:1016E00080421A6000BFBD4680BC704700000840C1
:1016F00080B584B000AF154B984718233B71002389
:101700007B710123BB710023FB7100233B72072314
:101710007B720223BB720223FB7201233B731E23E5
:101720007B733B1D18460A4B98470A4B984700208D
:10173000094B98470120084B98470220064B9847D1
:10174000002318461037BD4680BD00BF751D000040
:10175000C51D0000611E0000FD1E000080B500AF29
:10176000044B9847044B9847044B9847044B9847C1
:1017700000BF80BD9D160000D9160000B516000000
:101780008516000090B585B002AF78600023009305
:1017900005237A6804210220024CA04700BF0C37C1
:1017A000BD4690BDC51F000080B582B000AF0346A6
:1017B0000A46FB711346BB71FB79012B05D8BA7938
:1017C000FB7911461846064B9847BA79FB791146C2
:1017D0001846044B984700BF0837BD4680BD00BF80
:1017E000691F00002521000080B582B000AF0346CC
:1017F000FB7102210320134B984703210220114B58
:101800009847022102200F4B9847032103200E4BDB
:101810009847FB79022B03D9022102200A4B9847F3
:10182000FB79012B03D903210220074B9847FB7951
:10183000002B03D002210320034B984700BF083739
:10184000BD4680BD192200002521000080B584B06E
:1018500000AF78607B68002B04DA112100201B4B5D
:10186000984703E011210020194B98477B68002B13
:10187000B8BF5B427B607B68164A93420DDD7B6894
:10188000A3F5C333A03B7B600D2100200F4B98478D
:10189000092100200D4B984707E00D2100200C4B3B
:1018A0009847092100200A4B984707F108037A68F6
:1018B00009491846094B984707F108031846084B91
:1018C000984700BF1037BD4680BD00BF25210000EE
:1018D000192200009F860100DC770000B55200004D
:1018E0008517000080B485B000AF0346FB71FB791B
:1018F0000F2B01D90023FB71FB799B0103F180437E
:1019000003F52223FB60FB6818461437BD4680BCF4
:101910007047000080B586B000AF0346FB71FB79CD
:101920001846154B984778617B69DB693B617B6999
:10193000DB6AFB603B6903F00103002B16D0FB68F8
:1019400003F00403002B01D0042310E0FB6803F034
:101950000203002B01D0032309E0FB6803F001031D
:10196000002B01D0022302E0012300E000231846EF
:101970001837BD4680BD00BFE518000080B584B0B3
:1019800000AF0346FB71FB791846054B9847F8609A
:10199000FB6802225A6100BF1037BD4680BD00BF00
:1019A000E518000080B584B000AF0346FB71FB79F9
:1019B00018460A4B98470346FB73FB79084A52F8CE
:1019C0002330002B06D0FB79054A52F82330FA7BEE
:1019D0001046984700BF1037BD4680BD151900005E
:1019E0008C04002080B500AF0020024B984700BF58
:1019F00080BD00BFA519000080B500AF0120024BDB
:101A0000984700BF80BD00BFA519000080B500AF9A
:101A10000220024B984700BF80BD00BFA5190000FF
:101A200080B500AF0320024B984700BF80BD00BFC8
:101A3000A519000080B500AF0420024B984700BFF5
:101A400080BD00BFA519000080B500AF0520024B86
:101A5000984700BF80BD00BFA519000080B500AF4A
:101A60000620024B984700BF80BD00BFA5190000AB
:101A700080B500AF0720024B984700BF80BD00BF74
:101A8000A519000080B500AF0820024B984700BFA1
:101A900080BD00BFA519000080B500AF0920024B32
:101AA000984700BF80BD00BFA519000080B500AFFA
:101AB0000A20024B984700BF80BD00BFA519000057
:101AC00080B500AF0B20024B984700BF80BD00BF20
:101AD000A519000080B500AF0C20024B984700BF4D
:101AE00080BD00BFA519000080B500AF0D20024BDE
:101AF000984700BF80BD00BFA519000080B500AFAA
:101B00000E20024B984700BF80BD00BFA519000002
:101B100080B500AF0F20024B984700BF80BD00BFCB
:101B2000A519000080B483B000AFEFF310837B6091
:101B30007B68002B0CBF01230023DBB23B6072B635
:101B4000BFF35F8F044B00221A703B6818460C37B6
:101B5000BD4680BC704700BF7400002080B483B0D5
:101B600000AF78607B68002B14BF01230023DBB239
:101B700018460C37BD4680BC7047000080B582B067
:101B800000AF78607868074B98470346002B05D074
:101B9000054B01221A70BFF35F8F62B600BF083792
:101BA000BD4680BD5D1B00007400002080B582B082
:101BB00000AF0346FB71FB79062B23D801A252F834
:101BC00023F000BFE11B0000E71B0000ED1B00003D
:101BD000F31B0000F91B0000FF1B0000051C0000A8
:101BE0000B4B98470FE00B4B98470CE00A4B98477C
:101BF00009E00A4B984706E0094B984703E0094B78
:101C0000984700E000BF00BF0837BD4680BD00BF59
:101C1000C1230000FD23000039240000B924000086
:101C2000F92400007924000080B483B000AF03469B
:101C3000FB71FB79062B4FD801A252F823F000BFAD
:101C40005D1C0000711C0000851C0000991C000038
:101C5000AD1C0000C11C0000D51C0000214B5B69BD
:101C600003F00103002B14BF01230023DBB234E097
:101C70001D4B5B6903F00103002B14BF01230023FC
:101C8000DBB22AE0184B5B6A03F00103002B14BFA0
:101C900001230023DBB220E0124B1B6D03F0010394
:101CA000002B14BF01230023DBB216E00D4B9B6C0D
:101CB00003F00103002B14BF01230023DBB20CE06F
:101CC000094B9B6D03F00103002B14BF012300237C
:101CD000DBB202E0012300E0002318460C37BD46CA
:101CE00080BC704700080E4000040F4080B582B0F1
:101CF00000AF0346FB7100BFFB791846054B9847C0
:101D0000034683F00103DBB2002BF5D100BF083797
:101D1000BD4680BD291C000080B400AF034B0122EA
:101D20001A6100BFBD4680BC704700BF000008407C
:101D300080B584B000AF0346FB71FB790A4AD35CDF
:101D4000FF2B00D1FEE7094B9847F860FB79064A64
:101D5000D25C0132D1B2044AD154F868044B98479E
:101D600000BF1037BD4680BD74040020251B000055
:101D70007D1B000080B500AF0B480C4B984701203D
:101D80000B4B9847034683F00103DBB2002B05D0D1
:101D90000120084B98470120074B9847002107482E
:101DA000074B984700BF80BD00000840CD280000C9
:101DB000291C0000AD1B0000ED1C000000000F40BE
:101DC000A936000080B582B000AF7860224B552262
:101DD0001A6021497B681B7A1B0603F0F8527B6866
:101DE000DB791B0403F4F8131A437B689B791B020D
:101DF00003F4F8531A437B685B795B0003F00E032E
:101E000013437A68127913438B6013497B681B78FC
:101E10001B0603F07C527B685B78002B01D001230A
:101E200000E000231A437B689B78002B01D000233D
:101E300000E002231A437B68DB781B0203F4407343
:101E400013434B607B6893F909301846034B98475E
:101E500000BF0837BD4680BD00000840A11E00003D
:101E600080B500AF06200C4B98470C4A0B4B5B68C3
:101E700023F004035360094B02221A60074B4FF40E
:101E800080721A6000BF054BDB6803F01003002B63
:101E9000F9D000BF80BD00BF311D00000000084028
:101EA00080B487B000AF0346FB71134B5B683B61A6
:101EB0001F23FB732023BB733B6923F47C133B611B
:101EC000FA79FB7B13405BB27B6197F90730002BFB
:101ED00004DA97F90E307A6913437B6106497B690E
:101EE0001B0403F47C123B6913434B6000BF1C3797
:101EF000BD4680BC704700BF0000084080B483B07E
:101F000000AF0346FB71FB79002B0AD1154B082269
:101F10001A6000BF134BDB6803F00203002BF9D0FB
:101F20001AE0FB79012B0AD10E4B20221A6000BF68
:101F30000C4BDB6803F00403002BF9D00CE0FB79B9
:101F4000022B09D1074B80221A6000BF054BDB68CA
:101F500003F00803002BF9D000BF0C37BD4680BC4E
:101F6000704700BF0000084080B483B000AF034654
:101F70000A46FB711346BB71BB79002B0CD110498B
:101F80000F4B9A6BFB79012000FA03F31B0203F459
:101F90007063DB4313408B63BB79012B0BD1084982
:101FA000074B9A6BFB79012000FA03F31B039BB2EA
:101FB000DB4313408B6300BF0C37BD4680BC7047CA
:101FC0000000084080B485B000AFBA607B60034673
:101FD000FB730B46BB731449FB7B5B0003F00602EB
:101FE000BB7B1B0203F47C531A433B7E002B01D0C6
:101FF000012300E0002313430B6409E0BB681B7856
:10200000002B0BD00849BB685A1CBA601B784B6484
:102010007B685A1E7A60002BF0D100E000BF00BF41
:102020001437BD4680BC7047000008402DE9F04FD2
:1020300085B000AFF8714FF0000A4FF0000BC7E910
:1020400002ABF879032862D80FF2040E5EF820F094
:10205000612000008D200000B7200000E12000007A
:102060002F4B5B694FF00004C7E902342C4B9B698E
:102070004FF0000499464FF00008D7E9023443EAD4
:10208000080344EA0904C7E9023440E0244BDB6951
:102090004FF00004C7E90234214B1B6A4FF00004E3
:1020A0001E000025D7E9023443EA050344EA06048A
:1020B000C7E902342BE01A4B5B6A4FF00004C7E912
:1020C0000234174B9B6A4FF000041A000021D7E935
:1020D000023443EA010344EA0204C7E9023416E089
:1020E0000F4AD26A11464FF00002C7E902120C4AA9
:1020F000126B11464FF000020C000023D7E90212C8
:1021000043EA010344EA0204C7E9023400BFD7E905
:102110000234184621461437BD46BDE8F08F00BF93
:10212000000008402DE9F04F89B000AF03460A4691
:10213000FB751346BB75FB7D032B63D8BB7D272B3B
:1021400060D8FB7D1846324B9847C7E90601B97D38
:102150004FF001034FF00004A1F12000C1F1200273
:1021600004FA01F603FA00F0064323FA02F21643DA
:1021700003FA01F5D7E9063443EA050344EA060405
:10218000C7E90634FB7D032B3CD801A252F823F0AB
:10219000A1210000BB210000D5210000ED2100009D
:1021A0001C4ABB6953611B4AD7E906342300BB6054
:1021B0000023FB60BB68936124E0164ABB69D361CE
:1021C000144AD7E9063423003B6000237B603B6858
:1021D000136217E00F4ABB6953620E4AD7E906340F
:1021E000A2464FF0000B534693620BE0094ABB69CD
:1021F000D362084AD7E90634A0464FF000094346A7
:10220000136300BF00BF2437BD46BDE8F08F00BF99
:102210002D200000000008402DE9F04F89B000AFEC
:1022200003460A46FB751346BB75FB7D032B67D837
:10223000BB7D272B64D8FB7D1846344B9847C7E9F4
:102240000601B97D4FF001034FF00004A1F1200019
:10225000C1F1200204FA01F603FA00F0064323FA62
:1022600002F2164303FA01F56FEA05036FEA06046A
:10227000D7E9061203EA010304EA0204C7E90634B7
:10228000FB7D032B3CD801A252F823F09D220000D5
:10229000B7220000D1220000E92200001C4ABB69DD
:1022A00053611B4AD7E906342300BB600023FB605F
:1022B000BB68936124E0164ABB69D361144AD7E92D
:1022C000063423003B6000237B603B68136217E009
:1022D0000F4ABB6953620E4AD7E90634A2464FF053
:1022E000000B534693620BE0094ABB69D362084A6C
:1022F000D7E90634A0464FF000094346136300BFF8
:1023000000BF2437BD46BDE8F08F00BF2D20000080
:102310000000084080B500AF054B9847054B1B688F
:10232000002B02D0034B1B68984700BF80BD00BF45
:10233000191D00009403002080B483B000AFEFF3B8
:1023400010837B607B68002B0CBF01230023DBB272
:102350003B6072B6BFF35F8F044B00221A703B687C
:1023600018460C37BD4680BC704700BF7400002083
:1023700080B483B000AF78607B68002B14BF01236A
:102380000023DBB218460C37BD4680BC7047000006
:1023900080B582B000AF78607868074B98470346F5
:1023A000002B05D0054B01221A70BFF35F8F62B678
:1023B00000BF0837BD4680BD7123000074000020B7
:1023C00080B582B000AF084B98477860074B084A49
:1023D0009A61064B074A1A627868074B984700BF14
:1023E0000837BD4680BD00BF3923000000080E40FD
:1023F000200000AA070301009123000080B582B0ED
:1024000000AF084B98477860074B084A9A61064B23
:10241000074A1A627868074B984700BF0837BD46DD
:1024200080BD00BF3923000000040F40200000AA37
:102430000DA105009123000080B582B000AF0A4BCA
:1024400098477860094B5B6A3B60084B084A9A6181
:10245000064A3B6843F0050353627868054B98478A
:1024600000BF0837BD4680BD3923000000040F407F
:10247000240000AA9123000080B582B000AF0A4B6F
:1024800098477860094B9B6D3B60084B084A9A61FE
:10249000064A3B6843F0010393657868054B98470B
:1024A00000BF0837BD4680BD3923000000040F403F
:1024B000580000AA9123000080B582B000AF0A4BFB
:1024C00098477860094B1B6D3B60084B084A9A613E
:1024D000064A3B6843F0010313657868054B98474B
:1024E00000BF0837BD4680BD3923000000080E40FC
:1024F000500000AA9123000080B582B000AF0C4BC1
:10250000984778600B4B9B6C3B603B6823F44073AF
:102510003B60084B084A9A61064A3B6843F0010356
:1025200093647868054B984700BF0837BD4680BD67
:102530003923000000080E40480000AA9123000043
:1025400080B483B000AFEFF310837B607B68002B17
:102550000CBF01230023DBB23B6072B6BFF35F8F79
:10256000044B00221A703B6818460C37BD4680BCED
:10257000704700BF7400002080B483B000AF786063
:102580007B68002B14BF01230023DBB218460C37F5
:10259000BD4680BC7047000080B582B000AF786057
:1025A0007868074B98470346002B05D0054B01225E
:1025B0001A70BFF35F8F62B600BF0837BD4680BD9B
:1025C000792500007400002080B582B000AF7860EB
:1025D00079680120024B984700BF0837BD4680BD8F
:1025E000DD26000080B582B000AF786079680120F8
:1025F000024B984700BF0837BD4680BD4527000005
:1026000080B582B000AF786079680420024B9847AB
:1026100000BF0837BD4680BDDD26000080B582B012
:1026200000AF786079680420024B984700BF0837F4
:10263000BD4680BD4527000080B582B000AF786000
:1026400079680520024B984700BF0837BD4680BD1A
:10265000DD26000080B582B000AF78607968052083
:10266000024B984700BF0837BD4680BD4527000094
:1026700080B485B000AF7860084B1B6CFB60FA68D3
:102680007B681343FB60054B054A9A65034AFB6868
:10269000136400BF1437BD4680BC704700000E4075
:1026A000400000AA80B485B000AF7860094B1B6C75
:1026B000FB607B68DB43FA681340FB60054B064A0E
:1026C0009A65044AFB68136400BF1437BD4680BC9A
:1026D000704700BF00000E40400000AA80B584B0E3
:1026E00000AF78603960134B9847F8607B689A00B8
:1026F000114B13441B68BB6001223B6802FA03F3D1
:10270000BA681343BB600D4A7B6808339B0003F42F
:102710007F7343F02A4393657B689A00064B13440A
:10272000BA681A60F868064B984700BF1037BD4674
:1027300080BD00BF4125000020000E4000000E407B
:102740009925000080B584B000AF78603960134BE4
:102750009847F8607B689A00114B13441B68BB6074
:1027600001223B6802FA03F3DB43BA681340BB6003
:102770000C4A7B6808339B0003F47F7343F02A43C1
:1027800093657B689A00064B1344BA681A60F86830
:10279000054B984700BF1037BD4680BD412500005E
:1027A00020000E4000000E409925000080B584B046
:1027B00000AF78600A4B9847F8600A4B9B6A002B81
:1027C00002D10520084B9847F868084B984779686C
:1027D0000220074B984700BF1037BD4680BD00BFA1
:1027E0004125000000000E40C92500009925000089
:1027F000DD26000080B584B000AF786079680220E3
:10280000094B9847094B9847F860094B9B6A002B86
:1028100002D10520074B9847F868074B984700BF3F
:102820001037BD4680BD00BF452700004125000090
:1028300000000E40E52500009925000080B584B019
:1028400000AF78600A4B9847F8600A4BDB6A002BB0
:1028500002D10620084B9847F868084B98477968DA
:102860000320074B984700BF1037BD4680BD00BF0F
:102870004125000000000E40C925000099250000F8
:10288000DD26000080B584B000AF78607968032051
:10289000094B9847094B9847F860094BDB6A002BB6
:1028A00002D10620074B9847F868074B984700BFAE
:1028B0001037BD4680BD00BF452700004125000000
:1028C00000000E40E52500009925000080B582B08B
:1028D00000AF78607B68A94A934200F04681A74A1E
:1028E00093426CD8A64A934200F00A81A44A9342CC
:1028F00030D8A44A934200F0EC80A24A934214D804
:10290000A14A934200F0D3809F4A934204D8B3F186
:10291000402F00F0C880E4E19C4A934200F0CB8055
:102920009B4A934200F0CE80DBE19A4A934200F04A
:10293000D880984A934204D8974A934200F0CD80B9
:10294000CFE1964A934200F0D080954A934200F03E
:10295000D080C6E1934A934200F0EF80914A9342BF
:1029600014D8914A934200F0D9808F4A934204D8F8
:102970008E4A934200F0CB80B3E18D4A934200F03F
:10298000D4808C4A934200F0D480AAE18A4A9342D0
:1029900000F0DF80884A934208D8884A934200F0CA
:1029A000D080874A934200F0D0809AE1854A9342D2
:1029B00000F0D380844A934200F0D38091E1834AAF
:1029C000934200F06281814A934233D8804A934215
:1029D00000F03E817E4A934214D87E4A934200F032
:1029E00025817C4A934204D87B4A934200F0C180FF
:1029F00077E17A4A934200F01D81794A934200F0D0
:102A000020816EE1774A934200F03481754A934207
:102A100008D8754A934200F01F81744A934200F02F
:102A200022815EE1724A934200F02B81714A934207
:102A300035D056E1704A934200F03B816E4A934292
:102A400014D86E4A934200F028816C4A934204D80D
:102A50006B4A934200F01D8143E16A4A934200F0C1
:102A60002081694A934200F020813AE1674A93420B
:102A700000F02B81654A934208D8654A934200F0E2
:102A80001C81644A934200F01C812AE1624A93420D
:102A900000F01F81614A934200F01F8121E109206B
:102AA0005F4B98471DE100205E4B984719E10120DC
:102AB0005C4B984715E102205A4B984755205A4BDA
:102AC00098470EE10320574B98475520564B98479F
:102AD00007E10420534B984703E10520514B9847E9
:102AE000FFE006204F4B9847FBE007204D4B9847EF
:102AF000F7E008204B4B984704204B4B9847F0E0F9
:102B00000920484B98470420474B9847E9E00A20A2
:102B1000444B98470420444B9847E2E00B20414B3C
:102B200098470420404B9847DBE00C203D4B9847EA
:102B3000D7E00D203B4B9847D3E00E20394B984708
:102B4000CFE00F20374B9847CBE01020354B98470C
:102B5000C7E01120334B9847C3E01220314B984710
:102B6000BFE013202F4B9847BBE015202D4B984713
:102B7000B7E016202B4B9847B3E000BF008007401A
:102B800000800240008001400080004000000140C1
:102B90000040014000C001400084014000C40140E9
:102BA00000400240000004400000034000C002401A
:102BB0000080034000C00340008006400000064043
:102BC0000040064000C006400000074000000E40E4
:102BD00000100A400000084000C0074000000A4002
:102BE00000040A4000500A4000200A4000400A4009
:102BF00000600A4000000B4000000F4000080E403B
:102C000000040E40000C0E4000100E40000C0F405F
:102C100000040F4000080F4000100F4000140F4048
:102C2000C9250000AD2700007126000017202E4B9B
:102C3000984756E001202D4B984700202C4B984791
:102C40004FE00220294B98470120294B984748E044
:102C50000220274B984744E00020244B984703204C
:102C6000234B98473DE00420204B98470420204BFD
:102C7000984736E003201D4B984705201C4B98478A
:102C80002FE006201A4B98472BE00020194B98475D
:102C900027E00120174B984723E00220154B984767
:102CA0001FE00320134B98471BE00420114B98476B
:102CB00017E00020104B984713E001200E4B984777
:102CC0000FE002200C4B98470BE003200A4B98477B
:102CD00007E00420084B984703E00520064B98477F
:102CE00000BF0837BD4680BDAD270000C9250000E4
:102CF0003D280000012600003926000080B582B082
:102D000000AF78607B68A74A934200F03481A54AFF
:102D100093426CD8A44A934200F00181A24A9342A4
:102D200030D8A24A934200F0E680A04A934214D8D9
:102D30009F4A934200F0D3809D4A934204D8B3F156
:102D4000402F00F0C880D8E19A4A934200F0CB802F
:102D5000994A934200F0CB80CFE1984A934200F029
:102D6000D280964A934204D8954A934200F0C78095
:102D7000C3E1944A934200F0CA80934A934200F020
:102D8000CA80BAE1914A934200F0DD808F4A9342B3
:102D900014D88F4A934200F0CA808D4A934204D8D7
:102DA0008C4A934200F0BF80A7E18B4A934200F027
:102DB000C2808A4A934200F0C2809EE1884A9342D0
:102DC00000F0CD80864A934208D8864A934200F0AC
:102DD000BE80854A934200F0BE808EE1834A9342D2
:102DE00000F0C180824A934200F0C18085E1814AAF
:102DF000934200F04C817F4A934233D87E4A9342FB
:102E000000F028817C4A934214D87C4A934200F017
:102E1000BA807A4A934204D8794A934200F0AF804C
:102E20006BE1784A934200F0B280774A934200F017
:102E3000B28062E1754A934200F01E81734A934268
:102E400008D8734A934200F00981724A934200F015
:102E50000C8152E1704A934200F015816F4A93420F
:102E600035D04AE16E4A934200F025816C4A934284
:102E700014D86C4A934200F012816A4A934204D8F3
:102E8000694A934200F0078137E1684A934200F0B3
:102E90000A81674A934200F00A812EE1654A934213
:102EA00000F01581634A934208D8634A934200F0C8
:102EB0000681624A934200F006811EE1604A934215
:102EC00000F009815F4A934200F0098115E1092071
:102ED0005D4B984707E100205C4B984703E10120D8
:102EE0005A4B9847FFE00220584B9847FBE00320DD
:102EF000564B9847F7E00420544B9847F3E00520E1
:102F0000524B9847EFE00620504B9847EBE00720E4
:102F10004E4B9847E7E008204C4B9847E3E00920E8
:102F20004A4B9847DFE00A20484B9847DBE00B20EC
:102F3000464B9847D7E00C20444B9847D3E00D20F0
:102F4000424B9847CFE00E20404B9847CBE00F20F4
:102F50003E4B9847C7E010203C4B9847C3E01120F8
:102F60003A4B9847BFE01220384B9847BBE01320FC
:102F7000364B9847B7E01520344B9847B3E01620FE
:102F8000324B9847AFE01720304B9847ABE000201A
:102F90002F4B9847A7E002202B4B984701202C4B42
:102FA0009847A0E000800740008002400080014078
:102FB00000800040000001400040014000C001408E
:102FC0000084014000C40140004002400000044071
:102FD0000000034000C002400080034000C00340E6
:102FE00000800640000006400040064000C0064049
:102FF0000000074000000E4000100A40000008409A
:1030000000C0074000000A4000040A4000500A4087
:1030100000200A4000400A4000600A4000000B40C7
:1030200000000F4000080E4000040E40000C0E404F
:1030300000100E40000C0F4000040F4000080F402D
:1030400000100F4000140F40E5250000F527000098
:103050008528000002202A4B984744E00020294B95
:1030600098470320264B98473DE00420254B98477E
:103070000420234B984736E00320224B9847052035
:103080001F4B98472FE006201D4B98472BE0002050
:103090001D4B984727E001201B4B984723E0022057
:1030A000194B98471FE00320174B98471BE004205B
:1030B000154B984717E00020144B984713E0012068
:1030C000124B98470FE00220104B98470BE003206B
:1030D0000E4B984707E004200C4B984703E005206F
:1030E0000A4B984700BF0A4B9A6A40F60C7313408C
:1030F000002B02D17F20074B98470837BD4680BD83
:1031000085280000E52500001D260000552600004A
:1031100000000E40A526000080B586B000AF002359
:103120007B610023FB741B481B4B9847194B012202
:103130009A6000BF174BDB6803F00103002BF9D046
:1031400000237B610023FB74144BBB607B697B60B5
:1031500001233B603B68002B04D17968B868104BB1
:10316000984704E00F4A7968B8680F4B984700BF4A
:103170000A480E4B9847034603F00103002BF7D093
:103180000B4B9847F860F8680A4B984700BF183710
:10319000BD4680BD00040A40CD28000000000F405D
:1031A0005136000080A90300AD350000F136000063
:1031B000412500009925000080B500AF0248034B6F
:1031C000984700BF80BD00BF00100E40CD28000012
:1031D00080B489B000AF78607B68FB61FB69BB613C
:1031E000BB695A09FB697B617B6903F01F030121FD
:1031F00001FA03F33A61FB603B69BB60BB6803F50E
:10320000001303F5E1635B021A46FB68936000BF9D
:103210002437BD4680BC704780B48DB000AF786065
:1032200039607B68FB623B68BB62FB6A7B627B6ADE
:103230005A09FB6A3B623B6A03F01F03012101FA52
:1032400003F3FA61BB61BB6A7B61FB693B613B696C
:1032500003F5001303F5E1635B02FB607B6903F098
:103260000803002B03D0FB68BA695A6702E0FB68C9
:10327000BA699A677B6903F01003002B04D0FB68DE
:10328000BA69C3F8842003E0FB68BA69C3F88820F0
:103290007B6903F04003002B04D0FB68BA69C3F8D4
:1032A000C42003E0FB68BA69C3F8C8207B6903F057
:1032B0008003002B04D0FB68BA69C3F8042103E043
:1032C000FB68BA69C3F808217B6903F00103002B8E
:1032D00003D0FB68BA695A6102E0FB68BA699A6177
:1032E0007B6903F00203002B03D0FB68BA695A62C2
:1032F00002E0FB68BA699A627B6903F00403002B61
:1033000003D0FB68BA695A6302E0FB68BA699A6342
:1033100000BF3437BD4680BC704780B495B000AF65
:1033200078600B46FB707B68FB64FB7887F84B305A
:1033300097F84B30012B2FD1FB6C7B647B6C3B648B
:103340003B6C5B09FB63FB6B03F5001303F5E16367
:103350005B021946FB6CBB63BB6B03F01F030122CE
:1033600002FA03F34B64FB6C7B637B6B3B633B6B4D
:103370005B09FB62FB6A03F5001303F5E1635B0283
:103380001946FB6CBB62BB6A03F01F03012202FA01
:1033900003F3C1F8683132E097F84B30002B2ED19F
:1033A000FB6C7B627B6A3B623B6A5B09FB61FB698E
:1033B00003F5001303F5E1635B021946FB6CBB6187
:1033C000BB6903F01F03012202FA03F38B64FB6C59
:1033D0007B617B693B613B695B09FB60FB6803F5D3
:1033E000001303F5E1635B021946FB6CBB60BB682D
:1033F00003F01F03012202FA03F3C1F8643100BF96
:103400005437BD4680BC704780B48DB000AF786043
:103410000B46FB707B68FB62FB7887F82B3097F8D4
:103420002B30002B17D0FB6A7B627B6A3B623B6AC6
:103430005B09FB61FB6903F5001303F5E1635B02C4
:103440001946FB6ABB61BB6903F01F03012202FA44
:1034500003F34B6516E0FB6A7B617B693B613B696B
:103460005B09FB60FB6803F5001303F5E1635B0296
:103470001946FB6ABB60BB6803F01F03012202FA16
:1034800003F38B6500BF3437BD4680BC7047000036
:1034900080B588B000AF3B1D1846194B98473A1DC0
:1034A00007F1180317491846174B984707F11803F7
:1034B0001846164B9847164B984701214720154B45
:1034C000984701214720144B984700215820114B61
:1034D000984708215820114B984702212E200F4B66
:1034E00098472E200E4B984702212F200B4B9847D0
:1034F0002F200B4B984700BF2037BD4680BD00BF33
:10350000F9380000000C0F403D390000413A00003E
:10351000B93100001B3300000934000019320000EB
:10352000D131000080B483B000AFEFF310837B6033
:103530007B68002B0CBF01230023DBB23B6072B61B
:10354000BFF35F8F044B00221A703B6818460C379C
:10355000BD4680BC704700BF7400002080B483B0BB
:1035600000AF78607B68002B14BF01230023DBB21F
:1035700018460C37BD4680BC7047000080B582B04D
:1035800000AF78607868074B98470346002B05D05A
:10359000054B01221A70BFF35F8F62B600BF083778
:1035A000BD4680BD5D3500007400002080B58AB046
:1035B00000AFF860B9607A6000237B62FB68DB696A
:1035C0007B627B6A23F003037B62BB6803F0030327
:1035D0007A6A13437B627B6A43F008037B627B6AEF
:1035E00043F004037B62164B98473862154B9B6887
:1035F000FB61144B1B68BB61124B5B687B61114A1A
:103600007B6853600F4B05221A60796AF8680E4B8D
:1036100098470346FB740B4B00221A60094A7B69EA
:103620005360084AFB699360064ABB691360386AB5
:10363000064B9847FB7C18462837BD4680BD00BF27
:103640002535000010E000E0010000207D3500007D
:1036500080B485B000AF786039600023FB607B6880
:10366000DB69FB60FB6823F00303FB603B6803F04E
:103670000303FA681343FB60FB6843F00803FB6035
:10368000FB6843F00403FB60054B064A9A617B68C4
:10369000FA68DA6100BF1437BD4680BC704700BFCE
:1036A00000000F401C0000AA80B485B000AF786015
:1036B00039607B68DB69FB603B68002B04D1FB68E9
:1036C00023F48033FB6003E0FB6843F48033FB604A
:1036D000054B064A9A617B68FA68DA6100BF1437C5
:1036E000BD4680BC704700BF00000F401C0000AA10
:1036F00080B483B000AF78607B685B6918460C3794
:10370000BD4680BC7047000080B485B000AF7860D3
:1037100039607B68DB69FB60FB6823F48073FB60C6
:10372000FB6823F40073FB60FB6823F44053FB60E9
:10373000424B434A9A613B68012B09D17B68FA6886
:10374000DA61404A3F4B1B6923F00403136160E0D8
:103750003B68022B0DD1FB6843F48053FB607B6810
:10376000FA68DA61374A374B1B6923F004031361A7
:103770004FE03B68032B0DD1FB6843F40053FB6023
:103780007B68FA68DA612F4A2E4B1B6923F0040329
:1037900013613EE03B68042B0DD1FB6843F44053BA
:1037A000FB607B68FA68DA61264A264B1B6923F0C6
:1037B000040313612DE03B68052B09D17B68FA688F
:1037C000DA61204A1F4B1B6943F00403136120E0B8
:1037D0003B68062B0DD1FB6843F40073FB607B68EC
:1037E000FA68DA61174A174B1B6943F00403136147
:1037F0000FE03B68072B1CD1FB6843F48073FB6030
:103800007B68FA68DA610F4A0E4B1B6943F00403C8
:10381000136100BF0C4B5B6903F48063002BF9D08C
:1038200030BF00BF094B01221A70BFF35F8F62B631
:1038300000E000BF1437BD4680BC704700000F4059
:103840001C0000AA00ED00E000040F4074000020FE
:1038500080B400AF024B1846BD4680BC704700BF25
:1038600038C1010080B500AF024B984703461846A7
:1038700080BD00BF5138000080B584B000AF7860D3
:103880001A4B1B6803F40033002B0ED1184B9847DA
:10389000034603F560439C335B00013BDB08154A9C
:1038A000A2FB03235B0AFB6008E0114B9847034629
:1038B00003F580435B00013BDB0BFB60FB68DB082F
:1038C000FB6000BFFB685A1EFA60002BFAD1074A62
:1038D0007B6843F0AA431360044A7B6843F02A43A1
:1038E000136000BF1037BD4680BD00BF000C0F4005
:1038F00065380000AB381E0980B483B000AF786033
:103900007B6800221A607B6800225A607B68002274
:103910009A607B6810221A737B6800225A737B6856
:1039200001229A737B680122DA737B6800221A7481
:1039300000BF0C37BD4680BC7047000080B584B026
:1039400000AFF860B9607A60FB68BA681A60FB681B
:103950007A685A60B868374B9847BB681B6803F0B1
:103960000803002B01D0002360E0BB681B6803F054
:103970000103002B0DD0BB681B6823F00103184620
:103980002D4B984700BFBB681B6803F00103002B59
:10399000F9D1BB681B6803F48033002B0DD0BB68E2
:1039A0001B6823F480331846234B984700BFBB683D
:1039B0001B6803F48033002BF9D17B681A687B689D
:1039C0005B681A437B689B681A437B681B7B1B02FE
:1039D00003F4F8531A437B685B7B9B0403F4F803FE
:1039E0001A437B689B7B002B01D0802300E00023DF
:1039F0001A437B68DB7B002B01D0022300E000230D
:103A0000134318460C4B9847BB681B6843F480333C
:103A10001846094B984700BFBB681B6803F4803306
:103A2000002BF9D0B868054B98470123184610378A
:103A3000BD4680BDCD28000079380000FD2C000077
:103A400080B584B000AF78607B681B68FB60FB6862
:103A50001B6823F001031846074B984700BFFB681B
:103A60001B6803F00103002BF9D1F868034B98475A
:103A700000BF1037BD4680BD79380000FD2C000026
:103A800080B400AFFEE7000080B582B000AF164BF7
:103A90007B60164B3B607A683B689A420CD007E02B
:103AA0003B681A1D3A607A68111D796012681A60C5
:103AB0003B680F4A9342F3D30E4B3B6004E03B68F4
:103AC0001A1D3A6000221A603B680B4A9342F6D3F3
:103AD0000A4B7B600A4A7B6823F07F039360094BA3
:103AE0009847094B9847FEE7787A000000000020CD
:103AF000AC020020AC020020E8040020000000001E
:103B000000ED00E09D490000F947000080B485B059
:103B100000AF7860104BFB60104B1B68002B02D18C
:103B20000E4B0F4A1A600D4B1B68BB60BA687B686E
:103B30001A44FB689A4202DD4FF0FF3306E0074B60
:103B40001A687B681344054A1360BB68184614372B
:103B5000BD4680BC704700BFFC7F0020980300205A
:103B6000E814002080B483B000AF03463960FB71D5
:103B700097F90730002B0ADB0D4997F907303A68AF
:103B8000D2B21201D2B20B4483F800230AE00949F1
:103B9000FB7903F00F03043B3A68D2B21201D2B2B0
:103BA0000B441A7600BF0C37BD4680BC704700BF7F
:103BB00000E100E000ED00E080B582B000AF786089
:103BC0007B68013BB3F1807F01D301230FE00A4AF8
:103BD0007B68013B53600F214FF0FF30074B984744
:103BE000054B00229A60044B07221A6000231846F6
:103BF0000837BD4680BD00BF10E000E0653B000017
:103C000080B400AF024B1846BD4680BC704700BF71
:103C100038C1010080B500AF024B984703461846F3
:103C200080BD00BF013C000080B48DB000AF786063
:103C300039607B68FB623B68BB62FB6A7B627B6AC4
:103C40005A09FB6A3B623B6A03F01F03012101FA38
:103C500003F3FA61BB61BB6A7B61FB693B613B6952
:103C600003F5001303F5E1635B02FB607B6903F07E
:103C70000803002B03D0FB68BA695A6702E0FB68AF
:103C8000BA699A677B6903F01003002B04D0FB68C4
:103C9000BA69C3F8842003E0FB68BA69C3F88820D6
:103CA0007B6903F04003002B04D0FB68BA69C3F8BA
:103CB000C42003E0FB68BA69C3F8C8207B6903F03D
:103CC0008003002B04D0FB68BA69C3F8042103E029
:103CD000FB68BA69C3F808217B6903F00103002B74
:103CE00003D0FB68BA695A6102E0FB68BA699A615D
:103CF0007B6903F00203002B03D0FB68BA695A62A8
:103D000002E0FB68BA699A627B6903F00403002B46
:103D100003D0FB68BA695A6302E0FB68BA699A6328
:103D200000BF3437BD4680BC704780B495B000AF4B
:103D300078600B46FB707B68FB64FB7887F84B3040
:103D400097F84B30012B2FD1FB6C7B647B6C3B6471
:103D50003B6C5B09FB63FB6B03F5001303F5E1634D
:103D60005B021946FB6CBB63BB6B03F01F030122B4
:103D700002FA03F34B64FB6C7B637B6B3B633B6B33
:103D80005B09FB62FB6A03F5001303F5E1635B0269
:103D90001946FB6CBB62BB6A03F01F03012202FAE7
:103DA00003F3C1F8683132E097F84B30002B2ED185
:103DB000FB6C7B627B6A3B623B6A5B09FB61FB6974
:103DC00003F5001303F5E1635B021946FB6CBB616D
:103DD000BB6903F01F03012202FA03F38B64FB6C3F
:103DE0007B617B693B613B695B09FB60FB6803F5B9
:103DF000001303F5E1635B021946FB6CBB60BB6813
:103E000003F01F03012202FA03F3C1F8643100BF7B
:103E10005437BD4680BC704780B48DB000AF786029
:103E20000B46FB707B68FB62FB7887F82B3097F8BA
:103E30002B30002B17D0FB6A7B627B6A3B623B6AAC
:103E40005B09FB61FB6903F5001303F5E1635B02AA
:103E50001946FB6ABB61BB6903F01F03012202FA2A
:103E600003F34B6516E0FB6A7B617B693B613B6951
:103E70005B09FB60FB6803F5001303F5E1635B027C
:103E80001946FB6ABB60BB6803F01F03012202FAFC
:103E900003F38B6500BF3437BD4680BC704780B4E8
:103EA00089B000AF78607B68FB61FB69BB61BB696F
:103EB0007B617B695B093B613B6903F5001303F59B
:103EC000E1635B021A6EFB69FB60FB6803F01F0392
:103ED000012101FA03F31340002B14BF0123002337
:103EE000DBB218462437BD4680BC704780B584B02D
:103EF00000AF78602B4A7B6813441B78002B18D0E6
:103F00007B681846284B984703461946274A7B6822
:103F100013440A461A70254A7B6813441978244AC8
:103F20007B6813440A461A701E4A7B6813440022B9
:103F30001A700023FB731D4A7B68134419781C4ACE
:103F40007B6813440A461A707B681846164B9847DC
:103F500003461946154A7B6813440A461A70134AE9
:103F60007B6813441B78002B0BD1114A7B681344E8
:103F70001B78002B02D10023FB730DE00323FB739E
:103F80000AE00B4A7B6813441B78002B02D1012303
:103F9000FB7301E00223FB73FB7B18461037BD4621
:103FA00080BD00BF780000209F3E0000A0030020DD
:103FB0000404002080B400AF044B1B680133034AA3
:103FC000136000BFBD4680BC704700BF9C0300204B
:103FD00080B487B000AF78600B4B1B683B61002357
:103FE0007B6106E0084B1B68FB60FA683B69D31AEB
:103FF0007B617A697B689A42F4D300BF18461C370C
:10400000BD4680BC704700BF9C03002080B500AF58
:1040100000210C480C4B98470C4B1B78002B07D108
:10402000012142200A4B9847084B01221A7006E0F2
:1040300000214220064B9847044B00221A7000BF13
:1040400080BD00BF00000140DD03000068040020C7
:10405000193E000090B58DB000AF294B984703463C
:10406000BB614FF4E133FB61002387F82630002366
:104070003B62002387F82430002387F82530002393
:1040800087F82730002387F82830002387F8293065
:10409000002387F82A30002387F82B30002387F885
:1040A0002C30002387F82D30002387F82E30002392
:1040B00087F82F3007F1180319461248124B98471A
:1040C00055237B6000233B7200237B720023BB726D
:1040D0000023FB720023FB720C4BFB6004233B614B
:1040E00000233B7500237B750023BB750123084A21
:1040F00000210448074CA04700BF3437BD4690BD9F
:10410000153C000000C00740A10C0000CC040020BA
:10411000110700007515000080B500AF002149208F
:10412000084B984701214820064B98470A20064B28
:10413000984701214920034B98473220024B98476A
:1041400000BF80BD193E0000D13F000080B586B0A1
:1041500000AF124B02221A70104B00225A705523E6
:104160007B6000233B7200237B720023BB72002321
:10417000FB720023FB72094BFB6002233B610023AF
:104180003B7500237B750023BB753B1D1946044816
:10419000044B984700BF1837BD4680BDCC040020B3
:1041A00000C00740DD12000080B586B000AF552387
:1041B0007B6000233B7200237B720023BB720023D1
:1041C000FB720023FB72094BFB6013233B6100234E
:1041D0003B7500237B750023BB753B1D19460448C6
:1041E000044B984700BF1837BD4680BDD00400205F
:1041F00000C00740ED0D000080B586B000AF124B47
:1042000042221A70104B03225A7055237B60002300
:104210003B7200237B720023BB720023FB720023DE
:10422000FB72094BFB6002233B6100233B750023BB
:104230007B750023BB753B1D19460448044B98470A
:1042400000BF1837BD4680BDCC04002000C0074029
:10425000DD12000080B586B000AF144B10221A703A
:10426000124B00225A70114B03229A7055237B6027
:1042700000233B7200237B720023BB720023FB727E
:104280000023FB72094BFB6003233B6100233B755A
:1042900000237B750023BB753B1D19460448054B65
:1042A000984700BF1837BD4680BD00BFCC04002032
:1042B00000C00740DD12000080B586B000AF144B8F
:1042C00010221A70124B01225A70114B0F229A7051
:1042D00055237B6000233B7200237B720023BB725B
:1042E0000023FB720023FB72094BFB6003233B613D
:1042F00000233B7500237B750023BB753B1D1946CE
:104300000448054B984700BF1837BD4680BD00BF25
:10431000CC04002000C00740DD12000080B586B04C
:1043200000AF144B52221A70124B00225A70114BDC
:1043300001229A7055237B6000233B7200237B721D
:104340000023BB720023FB720023FB72094BFB604E
:1043500003233B6100233B7500237B750023BB7562
:104360003B1D19460448054B984700BF1837BD460A
:1043700080BD00BFCC04002000C00740DD1200005B
:1043800080B586B000AF144B44221A70124B032242
:104390005A70114B01229A7055237B6000233B72A7
:1043A00000237B720023BB720023FB720023FB728D
:1043B000094BFB6003233B6100233B7500237B75A6
:1043C0000023BB753B1D19460448054B984700BFA9
:1043D0001837BD4680BD00BFCC04002000C0074098
:1043E000DD12000080B586B000AF144B52221A7067
:1043F000124B02225A70114B01229A7055237B6096
:1044000000233B7200237B720023BB720023FB72EC
:104410000023FB72094BFB6003233B6100233B75C8
:1044200000237B750023BB753B1D19460448054BD3
:10443000984700BF1837BD4680BD00BFCC040020A0
:1044400000C00740DD12000080B586B000AF154BFC
:1044500050221A70134B00225A70124B03229A708A
:10446000104BFF22DA7055237B6000233B72002340
:104470007B720023BB720023FB720023FB72094B8B
:10448000FB6004233B6100233B7500237B75002305
:10449000BB753B1D19460448044B984700BF1837AD
:1044A000BD4680BDCC04002000C00740DD120000E6
:1044B00080B586B000AF124B00221A70104B00225C
:1044C0005A7055237B6000233B7200237B720023CC
:1044D000BB720023FB720023FB72094BFB600223BB
:1044E0003B6100233B7500237B750023BB753B1D9F
:1044F00019460448044B984700BF1837BD4680BD95
:10450000CC04002000C00740DD12000080B586B05A
:1045100000AF124B12221A70104B01225A70552311
:104520007B6000233B7200237B720023BB7200235D
:10453000FB720023FB72094BFB6002233B610023EB
:104540003B7500237B750023BB753B1D1946044852
:10455000044B984700BF1837BD4680BDCC040020EF
:1045600000C00740DD12000080B582B000AF786067
:10457000234B4FF00001786898470346002B0AD080
:10458000204B78689847034618461F4B98470E21E2
:1045900003201E4B98471E4B9B7CDBB2002B04D1A3
:1045A0001C4B98471C481D4B9847194B9B7CDBB212
:1045B000012B04D1174B98471948184B9847144BB7
:1045C0009B7CDBB2022B04D1124B98471548134B4E
:1045D00098470F4B9B7CDBB2032B0DD1124B4FF056
:1045E0000001786898470346002B00D104E0094B8E
:1045F00098470E48094B984700BF0837BD4680BD15
:1046000075770000897700004D180000A917000099
:10461000D00400205D170000E0770000851700003F
:10462000E4770000E877000025770000EC770000D1
:1046300080B582B000AF2C4B5B7BDBB21B022A4AF9
:10464000927BD2B21A44294B1046984703467B60AE
:10465000274B2849786898470346002B0ED0264BF5
:104660002649786898470346002B07D0002142204E
:10467000234B984701212C20214B9847214B4FF089
:104680000001786898470346002B07D0002142209C
:104690001B4B984700212C20194B98471A4B154962
:1046A000786898470346002B06D1184B1349786861
:1046B00098470346002B0FD0124B4FF0000178684B
:1046C00098470346002B07D100212C200C4B98471C
:1046D000012142200A4B984778680D4B984700BF4C
:1046E0000837BD4680BD00BFD0040020F57500002E
:1046F00061770000000016444D77000000007A4406
:10470000193E00002577000039770000757700001A
:104710006945000080B582B000AF2C4B1B7CDBB23A
:104720001B022A4A527CD2B21A44294B104698479F
:1047300003467B60274B2849786898470346002B3F
:104740000ED0264B2649786898470346002B07D0A1
:1047500000214220234B984701212C20214B9847D0
:10476000214B4FF00001786898470346002B07D093
:10477000002142201B4B984700212C20194B9847C1
:104780001A4B1549786898470346002B06D1184BF9
:104790001349786898470346002B0FD0124B4FF00F
:1047A0000001786898470346002B07D100212C2090
:1047B0000C4B9847012142200A4B984778680D4BD3
:1047C000984700BF0837BD4680BD00BFD004002019
:1047D000F57500006177000000806D444D770000A2
:1047E00000007A44193E0000257700003977000068
:1047F000757700006945000080B582B000AF4A4B74
:1048000098474A4B98474A4B98470246494BA3FB67
:1048100002239B091846484B9847484B9847484BFA
:10482000984701214920474B984701214820454B93
:104830009847454B98474FF47A70444B984700216E
:104840004820404B984708214820414B9847414B0E
:104850009847414B9847414B98473F4B9847404BAF
:1048600098473D4B98473F4B98473B4B98473E4BAB
:104870009847394B98473D4B9847374B98473C4BA7
:104880009847354B98473B4B9847334B98473A4BA3
:104890009847314B9847394B98472F4B9847012100
:1048A0004220284B984701212C20264B9847002373
:1048B000FB710023BB715820314B98470346BB71F5
:1048C0002E4B9847244B9847FB79012B0CD0022B99
:1048D00017D0002B23D12B482B4B9847BB79032BA8
:1048E0001CD10123FB7119E0284B9847BB79032B9E
:1048F00003D10223FB71264B98470020254B984794
:104900000DE0254B9847BB79032B03D10123FB71A5
:104910001F4B984703201F4B984700E000BFC8205B
:104920000A4B9847C7E700BF9134000019310000D7
:10493000153C0000D34D6210B93B0000F116000099
:10494000554000002B3D000019410000D13F000000
:10495000293C00004D410000A9410000F941000040
:1049600055420000B94200001D4300008143000091
:10497000E543000049440000B14400000D4500003B
:10498000ED3E0000F477000085170000314600007E
:104990005D170000E91700001547000070B50D4EC7
:1049A0000D4CA41BA4100025A54209D10B4E0C4CA4
:1049B00003F052F8A41BA4100025A54205D170BD38
:1049C00056F8253098470135EEE756F825309847D8
:1049D0000135F2E7647A0000647A0000647A00002E
:1049E000687A000002440346934200D1704703F8FE
:1049F000011BF9E72DE9F04788B0002B149F1299AD
:104A0000109DDDF84CA01E4627F02007BBBF03F128
:104A100000431E4600232D23462F14460B7004D05E
:104A2000452F00D10135022300E0032307AA049299
:104A300006AA03928DE828042246334600F0F4FCCF
:104A4000472F804602D1119BDB0726D5462F08EB66
:104A5000050911D198F80030302B0AD1002200232B
:104A60002046314602F09CFC18B9C5F10105CAF890
:104A70000050DAF8003099440022002320463146E5
:104A800002F08EFC38B93022079B994505D9591C94
:104A900007911A70F8E7CDF81C90079B159AA3EBC5
:104AA00008034046136008B0BDE8F087F7B5034639
:104AB0000029B8BF494203F8022BB4BF2D222B2294
:104AC0000929427020DD0DF1070217460A2691FBE5
:104AD000F6F506FB15113031092D02F8011C02F123
:104AE000FF34294609DC3031023A04F8011CBA428D
:104AF0001C4604D3201A03B0F0BD2246E7E712F8A3
:104B0000011B03F8011BF2E730221C46114404F894
:104B1000022B5970EEE700002DE9F04F91B00C46E2
:104B20001A9F93461E46054601F050FA0368099302
:104B3000184600F0E3FB00230E933B680A9007330E
:104B400023F0070303F1080294F81880D4F800A0BA
:104B50003A60D3E90023C4E91223D4F84C90A76C3F
:104B600029F000430B934FF0FF32A64B0B993846C8
:104B700002F048FC002840F0F7814FF0FF32A14BD3
:104B80000B99384602F020FC002840F0ED8100220D
:104B900000233846494602F00DFC10B12D2384F85D
:104BA0004330994B994FB8F1470F98BF1F460323E5
:104BB00023612AF0040323604FF0000900965B464E
:104BC0000FAA2146284600F0DFF9013040F09A8014
:104BD0004FF0FF3011B0BDE8F08F6268531C0EA893
:104BE0004AF480630DF1340E41D1062262602360E5
:104BF00000210DF133020193636805900292009346
:104C00003A464B460691CDF81080CDF80CE0284688
:104C1000FFF7F0FE08F0DF03472B074609D10D9B95
:104C2000D81C02DB6268934259DDA8F102085FFAE2
:104C300088F8B8F1650F0D9936D80139424604F16C
:104C400050000D91FFF732FF0E9A8318012A81461A
:104C5000236102DC2268D10701D5013323619DF86D
:104C60003330002BAAD02D2384F84330A6E7B8F1C7
:104C7000670F02D0B8F1470FB9D19AB10021069160
:104C80000DF133018DE80C00236005903A46CDF814
:104C90001080CDF80CE002914B462846FFF7AAFEA3
:104CA0000746BCE70122A1E7B8F1660F19D1002938
:104CB00063680CDD216113B92268D20702D5013384
:104CC0000B4423610D9BA3654FF00009C7E713B99F
:104CD0002268D00701D50233F3E70123F1E74FF053
:104CE00067080D9B0E9A934205DB22682361D1076A
:104CF000E8D50133E5E7002BD4BFC3F1020301235C
:104D00001344DEE723685A0507D423693A46594617
:104D10002846B04701302AD15AE7B8F1650F40F272
:104D2000DC8000220023D4E9120102F039FB0028C4
:104D300039D00123364A59462846B04701303FF45E
:104D400047AF0E9B0D9A9A4202DB2368D8070ED517
:104D50000A9B099A59462846B04701303FF438AFBC
:104D6000002704F11A080E9B013B9F4211DB2368C8
:104D70009F0708D5002704F11908E3680F9A9B1ACA
:104D80009F42C0F2E780E0680F9B9842B8BF184688
:104D900020E70123424659462846B04701303FF4F8
:104DA00017AF0137DFE70D9B002B33DC0123184AD7
:104DB00059462846B04701303FF40AAF0D9B23B94E
:104DC0000E9B13B92368D907D1D50A9B099A594676
:104DD0002846B04701303FF4FBAE4FF0000804F125
:104DE0001A090D9B5B42984501DB0E9B8EE7012360
:104DF0004A4659462846B04701303FF4E9AE08F12B
:104E00000108EEE7FFFFEF7FFA770000FE77000072
:104E10000A7800000E9AA36D9A42A8BF1A46002A8B
:104E2000904636DC04F11A034FF0000A28EAE878CD
:104E30000B93D4F85890A9EB08039A4531DB0E9BED
:104E40000D9A9A4238DB2368DA0735D40E9B0D9908
:104E5000A3EB0902A3EB01089045A8BF9046B8F167
:104E6000000F31DC002728EAE87804F11A090D9ACE
:104E70000E9B9B1AA3EB08039F42BFF678AF01235A
:104E80004A4659462846B04701303FF4A1AE0137A3
:104E9000EDE7134659463A462846B0470130C1D19E
:104EA00096E601230B9A59462846B04701303FF455
:104EB0008FAE0AF1010ABCE70A9B099A59462846B7
:104EC000B0470130C2D183E6434607EB0902594699
:104ED0002846B0470130C5D17AE60E9A012A01DC96
:104EE000DB0734D501233A4659462846B0470130FE
:104EF0003FF46EAE0A9B099A59462846B0470130E6
:104F00003FF466AE00220023D4E9120102F048FA11
:104F100050B1002704F11A080E9B013B9F420CDBA5
:104F20004B4604F15002F2E60E9B7A1C013B5946B7
:104F30002846B0470130F3D14AE60123424659469C
:104F40002846B04701303FF443AE0137E4E7012380
:104F50003A46ECE70123424659462846B04701301D
:104F60003FF436AE013708E73A464B4638464946E5
:104F700002F048FA00283FF430AE014B014F12E630
:104F800002780000067800002DE9F04791461F46A0
:104F90008A680B69DDF820809342B8BF1346C9F8D0
:104FA000003091F8432006460C4612B10133C9F88F
:104FB00000302368990642BFD9F800300233C9F89F
:104FC0000030256815F0060507D104F1190AE368D9
:104FD000D9F800209B1A9D4229DB94F843302268BF
:104FE000003318BF012392062ED404F14302394640
:104FF0003046C047013021D02368E568D9F8002049
:1050000003F00603042B08BFAD1AA36822690CBF86
:1050100025EAE57500259342C4BF9B1AED184FF0B1
:1050200000091A344D451BD10020BDE8F08701234B
:10503000524639463046C047013003D14FF0FF3069
:10504000BDE8F0870135C2E7E1185A1C302081F82D
:105050004300224494F8451082F843100233C4E719
:105060000123224639463046C0470130E6D009F1D7
:105070000109D7E72DE9F04317460A7E85B06E2A6D
:10508000984606460C460C9B01F1430E00F0BC808E
:105090001AD8632A2ED00AD8002A00F0C880582ACD
:1050A00000F08A8004F1420584F842202AE0642A54
:1050B00001D0692AF6D121681A6811F0800F23D037
:1050C000111D1960136827E0732A00F0B48008D816
:1050D0006F2A2AD0702AE5D10A6842F020020A60BD
:1050E00003E0752A21D0782ADCD1782284F8452083
:1050F0006E4964E01A6801F14205111D19601368D8
:1051000084F842300123A3E011F0400F02F10401C2
:105110001960D7D0B2F90030002B03DA2D225B42A0
:1051200084F8432062490A2217E02068196810F0C9
:10513000800F03D0081D18600B6806E010F0400FC8
:1051400001F104001860F7D00B8859496F2A14BF89
:105150000A220822002084F843006568A560002D1B
:10516000C0F29C80206820F004002060002B3FD11A
:10517000002D40F095807546082A0BD12368DA0788
:1051800008D5236962689A42DEBF302305F8013CE6
:1051900005F1FF35AEEB05032361CDF800803B46FA
:1051A00003AA21463046FFF7EFFE013055D14FF0FC
:1051B000FF3005B0BDE8F08381F845203C49226806
:1051C000186812F0800F00F104051D6001D003681B
:1051D00002E05506FBD50388D00744BF42F0200209
:1051E00022601BB9226822F0200222601022B1E75F
:1051F0007546B3FBF2F002FB1033CB5C05F8013DC2
:1052000003460028F5D1B7E708681A68496910F025
:10521000800F04D0101D18601368196007E010F0AB
:10522000400F02F1040018601368F6D019800023C3
:1052300023617546B1E71A68111D19601568626827
:105240000021284600F0DCFE08B1401B6060636866
:105250002361002384F843309FE723692A463946B7
:105260003046C0470130A2D023689B0707D50025F0
:1052700004F11909E368039A9B1A9D4205DBE06873
:10528000039B9842B8BF184693E701234A46394624
:105290003046C04701308AD00135EBE7002BA7D15B
:1052A0000B7884F8423004F1420565E71D78000070
:1052B0000C7800000EB400B59CB04FF402711DAB29
:1052C000ADF81410029006906FF000410A48049166
:1052D00007914FF6FF7153F8042BADF816100068D4
:1052E000019302A901F0CEFA029B00221A701CB0B1
:1052F0005DF804EB03B07047DC000020034613F8B0
:10530000012B002AFBD1181A013870472DE9F74FFD
:1053100003690C699C42804600F38280013C01F1E4
:1053200014074FEA840E00F1140657F8245056F87B
:10533000240006EB0E03013507EB0E090193B0FBC9
:10534000F5F595B34FF0000A3846B446D34650F809
:10535000042B93B205FB03A34FEA134A9BB2ABEBBA
:105360000303120CBCF800B005FB02A213FA8BF386
:105370004FEA124A1FFA82FBDCF80020CBEB124204
:1053800002EB23429BB243EA024381454FEA224BA0
:105390004CF8043BDBD256F80E3033B9019B043B8A
:1053A0009E421A4630D3C8F81040404601F08DF8AE
:1053B000002825DB013530464FF0000E57F8042B4E
:1053C000D0F800C093B2AEEB0303120C13FA8CF3C7
:1053D000C2EB1C4202EB23429BB243EA0243B945B3
:1053E0004FEA224E40F8043BE8D256F8242006EB60
:1053F00084032AB9043B9E421A460BD3C8F81040D6
:10540000284603B0BDE8F08F1268043B002ACAD1D9
:10541000013CC5E71268043B002AEFD1013CEAE7F2
:105420000020EEE7000000002DE9F04F466A95B03D
:105430000446219DCDE902233EB9102000F0D4FDA1
:105440006062466086600660C660636A196851B132
:105450005A684A60012393408B60204600F05FFE4B
:10546000636A00221A60039B002BBFBF01232B60DD
:10547000039B23F00043B2BF039300232B60DDF8AE
:105480000C90A94B33EA09031BD1209A42F20F7307
:105490001360029B23B9C9F31300002800F0818533
:1054A000229B53B9A14B21E0A14B06930833229ACA
:1054B0001360069815B0BDE8F08F9C4B069303333C
:1054C000F5E7DDE90267002200233046394601F0A6
:1054D00067FF804660B1209A01231360229B002B56
:1054E00000F05C85934B229A1360013B0693E0E742
:1054F00012AB019313AB009332463B46204601F0BA
:105500005CF8C9F30A558246002D7CD0C7F313031B
:1055100043F07F51304641F44011A5F2FF35CDF8FC
:1055200040800022844B01F01FFB79A3D3E90023C4
:1055300001F0CEFC78A3D3E9002301F017FB064667
:1055400028460F4601F05EFC75A3D3E9002301F065
:10555000BFFC02460B463046394601F007FB0646C3
:105560000F4601F065FF002283460023304639468E
:1055700001F020FF58B1584601F044FC02460B46AA
:105580003046394601F00CFF08B90BF1FF3BBBF187
:10559000160F57D8694901EBCB01DDE90223D1E9A8
:1055A000000101F025FF00284ED00BF1FF3B002346
:1055B0000D93129B5D1B6B1E079343BF0023C5F128
:1055C000010807934FF00008BBF1000F3EDB079B7B
:1055D000CDF830B05B440793002308931E9B092B42
:1055E00000F2B080052BC4BF043B1E931E9BA3F1A9
:1055F0000203CCBF00260126032B00F2AF80DFE8B8
:1056000003F083852D77139B129D1D4405F23243D1
:10561000202B11DD029A05F21240C3F1400322FA59
:1056200000F009FA03F3184301F0DCFB0123A1F1B8
:10563000F871013D109374E7C3F12000029B03FA57
:1056400000F0F1E70123B3E70D90B2E7CBF10003DF
:1056500008930023A8EB0B080C93BFE701230993E1
:105660001F9B002B7DDD04939946656A00226A60CA
:10567000042101F114029A4278D96968204600F0A9
:105680001AFD636A28601B680693B9F10E0F00F2D9
:10569000EE80002E00F0EB80DDE90223BBF1000F6D
:1056A000CDE90E2377DD254A0BF00F0302EBC30390
:1056B000D3E900234FEA2B16F006CDE90A235AD589
:1056C0001F4BDDE90E01D3E9082301F02BFDCDE9E5
:1056D000020106F00F060325194F002E4DD1DDE91A
:1056E0000A23DDE9020101F01DFDCDE902016CE0B4
:1056F000012309931F9B5B4403F1010904934B466B
:10570000012BB8BF0123B0E70023A8E70023F0E78F
:1057100061436F63A787D23FB3C8608B288AC63FB7
:10572000FB799F501344D33F0000F07F377800008F
:105730002E7800000B7800000000F83F6878000029
:1057400040780000012600231E9309964FF0FF3396
:1057500004939946002212231F9286E7012309939E
:10576000F4E70123049399461A46F5E76A68013283
:105770006A6049007DE70225AEE7F10708D5DDE95B
:105780000A01D7E9002301F0A3FBCDE90A010135A5
:1057900076100837A1E700F0A580CBF10006A34BF7
:1057A000A34F06F00F0203EBC203D3E90023DDE9A8
:1057B0000E0101F08DFBCDE9020136110023022517
:1057C000002E40F08480002B8FD10D9B002B00F029
:1057D0008B80DDE90223CDE90A23DDE90A010022FD
:1057E000944B01F0E7FD00287ED0B9F1000F7BD08B
:1057F000049B002B37DD00228F4BDDE90A0101F00D
:1058000067FBCDE90201049E0BF1FF370135284605
:1058100001F0F8FADDE9022301F05AFB874B002280
:1058200001F0A4F9CDE90A010B9BA3F150750B958A
:10583000002E5CD10022824BDDE9020101F094F9D7
:105840000A9A2B46CDE9020101F0D2FD002840F072
:10585000F7820A9A05F10043DDE9020101F0AAFD91
:10586000002840F0EB82DDE90E23CDE90223139BF3
:10587000002BC0F25181BBF10E0F00F34D816B4B39
:1058800003EBCB03D3E90023CDE904231F9B002BBB
:1058900080F2DA80B9F1000F00F3D68040F0CD82BB
:1058A0000022674BDDE9040101F012FBDDE9022370
:1058B00001F094FD4E464F46002840F0A482069B1E
:1058C000069A5D1C312313700BF1010B9FE2F20766
:1058D00005D5D7E9002301F0FBFA01350123761045
:1058E00008376DE7022570E75F464E468FE7069A58
:1058F0004E4B32441192099A711E002A48D003EB94
:10590000C103D3E9002300204E4901F00BFCDDE97F
:105910000A2301F029F9CDE90A01069DDDE902011A
:1059200001F086FD064601F06DFA02460B46DDE900
:10593000020101F019F9303605F8016BDDE90A239F
:10594000CDE9020101F036FD002865D1DDE9022331
:105950000020384901F008F9DDE90A2301F02AFDA9
:10596000002840F0B980119B9D423FF47CAF00229B
:10597000314BDDE90A0101F0ABFA0022CDE90A0161
:105980002D4BDDE9020101F0A3FACDE90201C5E7E3
:1059900003EBC101D1E90001DDE90A2301F098FA26
:1059A000CDE90A01069DDDE9020101F041FD06464F
:1059B00001F028FA303602460B46DDE9020101F01B
:1059C000D3F805F8016B119BAB42CDE902014FF012
:1059D000000225D11B4BDDE90A0101F0C7F80246A0
:1059E0000B46DDE9020101F003FD002874D1DDE979
:1059F0000A230020134901F0B7F802460B46DDE9FF
:105A0000020101F0D7FC00283FF42DAF15F8013C4E
:105A1000302B05F1FF3201D0BB464CE01546F5E7CF
:105A2000054B01F055FACDE90201BCE768780000AA
:105A3000407800000000F03F0000244000001C40BF
:105A4000000014400000E03FDDE90267069DDDE94B
:105A500004233046394601F065FB01F0E9FC80463D
:105A600001F0D0F9DDE9042301F032FA02460B46D9
:105A70003046394608F1300601F076F805F8016B3A
:105A8000069EAE1BB14502460B4638D101F06EF8BA
:105A900006460F4602460B46DDE9040101F08AFC8A
:105AA000C8B932463B46DDE9040101F079FC10B18A
:105AB00018F0010F0FD15146204600F030FB0023B3
:105AC000209A2B700BF101031360229B002B3FF4F3
:105AD000F0AC1D60EDE45F4615F8012C392A05F1A4
